{
  "contractName": "TicketStore",
  "abi": [
    {
      "inputs": [],
      "stateMutability": "nonpayable",
      "type": "constructor"
    },
    {
      "anonymous": false,
      "inputs": [
        {
          "indexed": true,
          "internalType": "address",
          "name": "account",
          "type": "address"
        },
        {
          "indexed": true,
          "internalType": "address",
          "name": "operator",
          "type": "address"
        },
        {
          "indexed": false,
          "internalType": "bool",
          "name": "approved",
          "type": "bool"
        }
      ],
      "name": "ApprovalForAll",
      "type": "event"
    },
    {
      "anonymous": false,
      "inputs": [
        {
          "indexed": true,
          "internalType": "address",
          "name": "previousOwner",
          "type": "address"
        },
        {
          "indexed": true,
          "internalType": "address",
          "name": "newOwner",
          "type": "address"
        }
      ],
      "name": "OwnershipTransferred",
      "type": "event"
    },
    {
      "anonymous": false,
      "inputs": [
        {
          "indexed": true,
          "internalType": "address",
          "name": "operator",
          "type": "address"
        },
        {
          "indexed": true,
          "internalType": "address",
          "name": "from",
          "type": "address"
        },
        {
          "indexed": true,
          "internalType": "address",
          "name": "to",
          "type": "address"
        },
        {
          "indexed": false,
          "internalType": "uint256[]",
          "name": "ids",
          "type": "uint256[]"
        },
        {
          "indexed": false,
          "internalType": "uint256[]",
          "name": "values",
          "type": "uint256[]"
        }
      ],
      "name": "TransferBatch",
      "type": "event"
    },
    {
      "anonymous": false,
      "inputs": [
        {
          "indexed": true,
          "internalType": "address",
          "name": "operator",
          "type": "address"
        },
        {
          "indexed": true,
          "internalType": "address",
          "name": "from",
          "type": "address"
        },
        {
          "indexed": true,
          "internalType": "address",
          "name": "to",
          "type": "address"
        },
        {
          "indexed": false,
          "internalType": "uint256",
          "name": "id",
          "type": "uint256"
        },
        {
          "indexed": false,
          "internalType": "uint256",
          "name": "value",
          "type": "uint256"
        }
      ],
      "name": "TransferSingle",
      "type": "event"
    },
    {
      "anonymous": false,
      "inputs": [
        {
          "indexed": false,
          "internalType": "string",
          "name": "value",
          "type": "string"
        },
        {
          "indexed": true,
          "internalType": "uint256",
          "name": "id",
          "type": "uint256"
        }
      ],
      "name": "URI",
      "type": "event"
    },
    {
      "anonymous": false,
      "inputs": [
        {
          "indexed": true,
          "internalType": "uint256",
          "name": "id",
          "type": "uint256"
        },
        {
          "indexed": false,
          "internalType": "uint256",
          "name": "price",
          "type": "uint256"
        },
        {
          "indexed": false,
          "internalType": "uint256",
          "name": "ticketSupply",
          "type": "uint256"
        },
        {
          "indexed": true,
          "internalType": "string",
          "name": "singer",
          "type": "string"
        }
      ],
      "name": "eventCreated",
      "type": "event"
    },
    {
      "anonymous": false,
      "inputs": [
        {
          "indexed": true,
          "internalType": "uint256",
          "name": "id",
          "type": "uint256"
        },
        {
          "indexed": false,
          "internalType": "address",
          "name": "_buyer",
          "type": "address"
        },
        {
          "indexed": false,
          "internalType": "uint256",
          "name": "_amount",
          "type": "uint256"
        }
      ],
      "name": "ticketBuyed",
      "type": "event"
    },
    {
      "inputs": [
        {
          "internalType": "address",
          "name": "account",
          "type": "address"
        },
        {
          "internalType": "uint256",
          "name": "id",
          "type": "uint256"
        }
      ],
      "name": "balanceOf",
      "outputs": [
        {
          "internalType": "uint256",
          "name": "",
          "type": "uint256"
        }
      ],
      "stateMutability": "view",
      "type": "function",
      "constant": true
    },
    {
      "inputs": [
        {
          "internalType": "address[]",
          "name": "accounts",
          "type": "address[]"
        },
        {
          "internalType": "uint256[]",
          "name": "ids",
          "type": "uint256[]"
        }
      ],
      "name": "balanceOfBatch",
      "outputs": [
        {
          "internalType": "uint256[]",
          "name": "",
          "type": "uint256[]"
        }
      ],
      "stateMutability": "view",
      "type": "function",
      "constant": true
    },
    {
      "inputs": [
        {
          "internalType": "address",
          "name": "account",
          "type": "address"
        },
        {
          "internalType": "address",
          "name": "operator",
          "type": "address"
        }
      ],
      "name": "isApprovedForAll",
      "outputs": [
        {
          "internalType": "bool",
          "name": "",
          "type": "bool"
        }
      ],
      "stateMutability": "view",
      "type": "function",
      "constant": true
    },
    {
      "inputs": [
        {
          "internalType": "address",
          "name": "",
          "type": "address"
        },
        {
          "internalType": "address",
          "name": "",
          "type": "address"
        },
        {
          "internalType": "uint256[]",
          "name": "",
          "type": "uint256[]"
        },
        {
          "internalType": "uint256[]",
          "name": "",
          "type": "uint256[]"
        },
        {
          "internalType": "bytes",
          "name": "",
          "type": "bytes"
        }
      ],
      "name": "onERC1155BatchReceived",
      "outputs": [
        {
          "internalType": "bytes4",
          "name": "",
          "type": "bytes4"
        }
      ],
      "stateMutability": "nonpayable",
      "type": "function"
    },
    {
      "inputs": [
        {
          "internalType": "address",
          "name": "",
          "type": "address"
        },
        {
          "internalType": "address",
          "name": "",
          "type": "address"
        },
        {
          "internalType": "uint256",
          "name": "",
          "type": "uint256"
        },
        {
          "internalType": "uint256",
          "name": "",
          "type": "uint256"
        },
        {
          "internalType": "bytes",
          "name": "",
          "type": "bytes"
        }
      ],
      "name": "onERC1155Received",
      "outputs": [
        {
          "internalType": "bytes4",
          "name": "",
          "type": "bytes4"
        }
      ],
      "stateMutability": "nonpayable",
      "type": "function"
    },
    {
      "inputs": [],
      "name": "owner",
      "outputs": [
        {
          "internalType": "address",
          "name": "",
          "type": "address"
        }
      ],
      "stateMutability": "view",
      "type": "function",
      "constant": true
    },
    {
      "inputs": [],
      "name": "renounceOwnership",
      "outputs": [],
      "stateMutability": "nonpayable",
      "type": "function"
    },
    {
      "inputs": [
        {
          "internalType": "address",
          "name": "from",
          "type": "address"
        },
        {
          "internalType": "address",
          "name": "to",
          "type": "address"
        },
        {
          "internalType": "uint256[]",
          "name": "ids",
          "type": "uint256[]"
        },
        {
          "internalType": "uint256[]",
          "name": "amounts",
          "type": "uint256[]"
        },
        {
          "internalType": "bytes",
          "name": "data",
          "type": "bytes"
        }
      ],
      "name": "safeBatchTransferFrom",
      "outputs": [],
      "stateMutability": "nonpayable",
      "type": "function"
    },
    {
      "inputs": [
        {
          "internalType": "address",
          "name": "from",
          "type": "address"
        },
        {
          "internalType": "address",
          "name": "to",
          "type": "address"
        },
        {
          "internalType": "uint256",
          "name": "id",
          "type": "uint256"
        },
        {
          "internalType": "uint256",
          "name": "amount",
          "type": "uint256"
        },
        {
          "internalType": "bytes",
          "name": "data",
          "type": "bytes"
        }
      ],
      "name": "safeTransferFrom",
      "outputs": [],
      "stateMutability": "nonpayable",
      "type": "function"
    },
    {
      "inputs": [
        {
          "internalType": "address",
          "name": "operator",
          "type": "address"
        },
        {
          "internalType": "bool",
          "name": "approved",
          "type": "bool"
        }
      ],
      "name": "setApprovalForAll",
      "outputs": [],
      "stateMutability": "nonpayable",
      "type": "function"
    },
    {
      "inputs": [
        {
          "internalType": "address",
          "name": "newOwner",
          "type": "address"
        }
      ],
      "name": "transferOwnership",
      "outputs": [],
      "stateMutability": "nonpayable",
      "type": "function"
    },
    {
      "inputs": [
        {
          "internalType": "uint256",
          "name": "",
          "type": "uint256"
        }
      ],
      "name": "uri",
      "outputs": [
        {
          "internalType": "string",
          "name": "",
          "type": "string"
        }
      ],
      "stateMutability": "view",
      "type": "function",
      "constant": true
    },
    {
      "inputs": [
        {
          "internalType": "uint256",
          "name": "_price",
          "type": "uint256"
        },
        {
          "internalType": "uint256",
          "name": "_ticketSupply",
          "type": "uint256"
        },
        {
          "internalType": "string",
          "name": "_singer",
          "type": "string"
        }
      ],
      "name": "createEvent",
      "outputs": [],
      "stateMutability": "nonpayable",
      "type": "function"
    },
    {
      "inputs": [
        {
          "internalType": "uint256",
          "name": "_id",
          "type": "uint256"
        },
        {
          "internalType": "uint256",
          "name": "_amount",
          "type": "uint256"
        }
      ],
      "name": "buyEvent",
      "outputs": [],
      "stateMutability": "payable",
      "type": "function",
      "payable": true
    },
    {
      "inputs": [],
      "name": "withdraw",
      "outputs": [],
      "stateMutability": "nonpayable",
      "type": "function"
    },
    {
      "inputs": [
        {
          "internalType": "bytes4",
          "name": "interfaceId",
          "type": "bytes4"
        }
      ],
      "name": "supportsInterface",
      "outputs": [
        {
          "internalType": "bool",
          "name": "",
          "type": "bool"
        }
      ],
      "stateMutability": "view",
      "type": "function",
      "constant": true
    }
  ],
  "bytecode": "0x60806040523480156200001157600080fd5b506040518060200160405280600081525062000033816200005a60201b60201c565b5062000054620000486200007660201b60201c565b6200007e60201b60201c565b62000259565b80600290805190602001906200007292919062000144565b5050565b600033905090565b6000600360009054906101000a900473ffffffffffffffffffffffffffffffffffffffff16905081600360006101000a81548173ffffffffffffffffffffffffffffffffffffffff021916908373ffffffffffffffffffffffffffffffffffffffff1602179055508173ffffffffffffffffffffffffffffffffffffffff168173ffffffffffffffffffffffffffffffffffffffff167f8be0079c531659141344cd1fd0a4f28419497f9722a3daafe3b4186f6b6457e060405160405180910390a35050565b8280546200015290620001f4565b90600052602060002090601f016020900481019282620001765760008555620001c2565b82601f106200019157805160ff1916838001178555620001c2565b82800160010185558215620001c2579182015b82811115620001c1578251825591602001919060010190620001a4565b5b509050620001d19190620001d5565b5090565b5b80821115620001f0576000816000905550600101620001d6565b5090565b600060028204905060018216806200020d57607f821691505b602082108114156200022457620002236200022a565b5b50919050565b7f4e487b7100000000000000000000000000000000000000000000000000000000600052602260045260246000fd5b6138e780620002696000396000f3fe6080604052600436106100f25760003560e01c8063715018a61161008a578063e985e9c511610059578063e985e9c514610318578063f23a6e6114610355578063f242432a14610392578063f2fde38b146103bb576100f2565b8063715018a6146102705780638da5cb5b14610287578063a22cb465146102b2578063bc197c81146102db576100f2565b80632eb2c2d6116100c65780632eb2c2d6146101d75780633ccfd60b146102005780634e1273f4146102175780635535113a14610254576100f2565b8062fdd58e146100f757806301ffc9a7146101345780630e89341c14610171578063294e0d56146101ae575b600080fd5b34801561010357600080fd5b5061011e6004803603810190610119919061243f565b6103e4565b60405161012b9190612dd2565b60405180910390f35b34801561014057600080fd5b5061015b600480360381019061015691906124f7565b6104ad565b6040516101689190612b5a565b60405180910390f35b34801561017d57600080fd5b5061019860048036038101906101939190612551565b6104bf565b6040516101a59190612b90565b60405180910390f35b3480156101ba57600080fd5b506101d560048036038101906101d091906125be565b610553565b005b3480156101e357600080fd5b506101fe60048036038101906101f99190612299565b610750565b005b34801561020c57600080fd5b506102156107f1565b005b34801561022357600080fd5b5061023e6004803603810190610239919061247f565b6108c4565b60405161024b9190612b01565b60405180910390f35b61026e6004803603810190610269919061257e565b6109dd565b005b34801561027c57600080fd5b50610285610c21565b005b34801561029357600080fd5b5061029c610ca9565b6040516102a991906129fb565b60405180910390f35b3480156102be57600080fd5b506102d960048036038101906102d491906123ff565b610cd3565b005b3480156102e757600080fd5b5061030260048036038101906102fd9190612299565b610ce9565b60405161030f9190612b75565b60405180910390f35b34801561032457600080fd5b5061033f600480360381019061033a9190612259565b610cfe565b60405161034c9190612b5a565b60405180910390f35b34801561036157600080fd5b5061037c60048036038101906103779190612368565b610d92565b6040516103899190612b75565b60405180910390f35b34801561039e57600080fd5b506103b960048036038101906103b49190612368565b610da7565b005b3480156103c757600080fd5b506103e260048036038101906103dd919061222c565b610e48565b005b60008073ffffffffffffffffffffffffffffffffffffffff168373ffffffffffffffffffffffffffffffffffffffff161415610455576040517f08c379a000000000000000000000000000000000000000000000000000000000815260040161044c90612bf2565b60405180910390fd5b60008083815260200190815260200160002060008473ffffffffffffffffffffffffffffffffffffffff1673ffffffffffffffffffffffffffffffffffffffff16815260200190815260200160002054905092915050565b60006104b882610f40565b9050919050565b6060600280546104ce9061310b565b80601f01602080910402602001604051908101604052809291908181526020018280546104fa9061310b565b80156105475780601f1061051c57610100808354040283529160200191610547565b820191906000526020600020905b81548152906001019060200180831161052a57829003601f168201915b50505050509050919050565b61055b610fba565b73ffffffffffffffffffffffffffffffffffffffff16610579610ca9565b73ffffffffffffffffffffffffffffffffffffffff16146105cf576040517f08c379a00000000000000000000000000000000000000000000000000000000081526004016105c690612cb2565b60405180910390fd5b60008311610612576040517f08c379a000000000000000000000000000000000000000000000000000000000815260040161060990612d92565b60405180910390fd5b60008211610655576040517f08c379a000000000000000000000000000000000000000000000000000000000815260040161064c90612cd2565b60405180910390fd5b60006106616004610fc2565b905061066d6004610fd0565b61068830828560405180602001604052806000815250610fe6565b6040518060800160405280828152602001858152602001848152602001838152506005600083815260200190815260200160002060008201518160000155602082015181600101556040820151816002015560608201518160030190805190602001906106f6929190611f04565b509050508160405161070891906129e4565b6040518091039020817fed03d9972139a59f727933c94d5cc694e4a510dffa7501ec84d0f64c2cda44018686604051610742929190612ded565b60405180910390a350505050565b610758610fba565b73ffffffffffffffffffffffffffffffffffffffff168573ffffffffffffffffffffffffffffffffffffffff16148061079e575061079d85610798610fba565b610cfe565b5b6107dd576040517f08c379a00000000000000000000000000000000000000000000000000000000081526004016107d490612c72565b60405180910390fd5b6107ea858585858561117c565b5050505050565b6000600660003373ffffffffffffffffffffffffffffffffffffffff1673ffffffffffffffffffffffffffffffffffffffff1681526020019081526020016000205490506000600660003373ffffffffffffffffffffffffffffffffffffffff1673ffffffffffffffffffffffffffffffffffffffff168152602001908152602001600020819055503373ffffffffffffffffffffffffffffffffffffffff166108fc829081150290604051600060405180830381858888f193505050501580156108c0573d6000803e3d6000fd5b5050565b6060815183511461090a576040517f08c379a000000000000000000000000000000000000000000000000000000000815260040161090190612d32565b60405180910390fd5b6000835167ffffffffffffffff81111561092757610926613244565b5b6040519080825280602002602001820160405280156109555781602001602082028036833780820191505090505b50905060005b84518110156109d2576109a285828151811061097a57610979613215565b5b602002602001015185838151811061099557610994613215565b5b60200260200101516103e4565b8282815181106109b5576109b4613215565b5b602002602001018181525050806109cb9061316e565b905061095b565b508091505092915050565b600060056000848152602001908152602001600020604051806080016040529081600082015481526020016001820154815260200160028201548152602001600382018054610a2b9061310b565b80601f0160208091040260200160405190810160405280929190818152602001828054610a579061310b565b8015610aa45780601f10610a7957610100808354040283529160200191610aa4565b820191906000526020600020905b815481529060010190602001808311610a8757829003601f168201915b505050505081525050905060008160400151118015610ac7575080604001518211155b610b06576040517f08c379a0000000000000000000000000000000000000000000000000000000008152600401610afd90612db2565b60405180910390fd5b818160200151610b169190612fc7565b3414610b57576040517f08c379a0000000000000000000000000000000000000000000000000000000008152600401610b4e90612cf2565b60405180910390fd5b610b77303383600001518560405180602001604052806000815250611490565b8181604001818151610b899190613021565b9150818152505080600560008581526020019081526020016000206000820151816000015560208201518160010155604082015181600201556060820151816003019080519060200190610bde929190611f04565b50905050827fe5efdb06d47358a02fe6c3a1567c7fd5d7b258b626fd0a281731787feffee6f23384604051610c14929190612ad8565b60405180910390a2505050565b610c29610fba565b73ffffffffffffffffffffffffffffffffffffffff16610c47610ca9565b73ffffffffffffffffffffffffffffffffffffffff1614610c9d576040517f08c379a0000000000000000000000000000000000000000000000000000000008152600401610c9490612cb2565b60405180910390fd5b610ca76000611712565b565b6000600360009054906101000a900473ffffffffffffffffffffffffffffffffffffffff16905090565b610ce5610cde610fba565b83836117d8565b5050565b600063bc197c8160e01b905095945050505050565b6000600160008473ffffffffffffffffffffffffffffffffffffffff1673ffffffffffffffffffffffffffffffffffffffff16815260200190815260200160002060008373ffffffffffffffffffffffffffffffffffffffff1673ffffffffffffffffffffffffffffffffffffffff16815260200190815260200160002060009054906101000a900460ff16905092915050565b600063f23a6e6160e01b905095945050505050565b610daf610fba565b73ffffffffffffffffffffffffffffffffffffffff168573ffffffffffffffffffffffffffffffffffffffff161480610df55750610df485610def610fba565b610cfe565b5b610e34576040517f08c379a0000000000000000000000000000000000000000000000000000000008152600401610e2b90612c32565b60405180910390fd5b610e418585858585611490565b5050505050565b610e50610fba565b73ffffffffffffffffffffffffffffffffffffffff16610e6e610ca9565b73ffffffffffffffffffffffffffffffffffffffff1614610ec4576040517f08c379a0000000000000000000000000000000000000000000000000000000008152600401610ebb90612cb2565b60405180910390fd5b600073ffffffffffffffffffffffffffffffffffffffff168173ffffffffffffffffffffffffffffffffffffffff161415610f34576040517f08c379a0000000000000000000000000000000000000000000000000000000008152600401610f2b90612c12565b60405180910390fd5b610f3d81611712565b50565b60007f4e2312e0000000000000000000000000000000000000000000000000000000007bffffffffffffffffffffffffffffffffffffffffffffffffffffffff1916827bffffffffffffffffffffffffffffffffffffffffffffffffffffffff19161480610fb35750610fb282611945565b5b9050919050565b600033905090565b600081600001549050919050565b6001816000016000828254019250508190555050565b600073ffffffffffffffffffffffffffffffffffffffff168473ffffffffffffffffffffffffffffffffffffffff161415611056576040517f08c379a000000000000000000000000000000000000000000000000000000000815260040161104d90612d72565b60405180910390fd5b6000611060610fba565b90506110818160008761107288611a27565b61107b88611a27565b87611aa1565b8260008086815260200190815260200160002060008773ffffffffffffffffffffffffffffffffffffffff1673ffffffffffffffffffffffffffffffffffffffff16815260200190815260200160002060008282546110e09190612f71565b925050819055508473ffffffffffffffffffffffffffffffffffffffff16600073ffffffffffffffffffffffffffffffffffffffff168273ffffffffffffffffffffffffffffffffffffffff167fc3d58168c5ae7397731d063d5bbf3d657854427343f4c083240f7aacaa2d0f62878760405161115e929190612ded565b60405180910390a461117581600087878787611aa9565b5050505050565b81518351146111c0576040517f08c379a00000000000000000000000000000000000000000000000000000000081526004016111b790612d52565b60405180910390fd5b600073ffffffffffffffffffffffffffffffffffffffff168473ffffffffffffffffffffffffffffffffffffffff161415611230576040517f08c379a000000000000000000000000000000000000000000000000000000000815260040161122790612c52565b60405180910390fd5b600061123a610fba565b905061124a818787878787611aa1565b60005b84518110156113fb57600085828151811061126b5761126a613215565b5b60200260200101519050600085838151811061128a57611289613215565b5b60200260200101519050600080600084815260200190815260200160002060008b73ffffffffffffffffffffffffffffffffffffffff1673ffffffffffffffffffffffffffffffffffffffff1681526020019081526020016000205490508181101561132b576040517f08c379a000000000000000000000000000000000000000000000000000000000815260040161132290612c92565b60405180910390fd5b81810360008085815260200190815260200160002060008c73ffffffffffffffffffffffffffffffffffffffff1673ffffffffffffffffffffffffffffffffffffffff168152602001908152602001600020819055508160008085815260200190815260200160002060008b73ffffffffffffffffffffffffffffffffffffffff1673ffffffffffffffffffffffffffffffffffffffff16815260200190815260200160002060008282546113e09190612f71565b92505081905550505050806113f49061316e565b905061124d565b508473ffffffffffffffffffffffffffffffffffffffff168673ffffffffffffffffffffffffffffffffffffffff168273ffffffffffffffffffffffffffffffffffffffff167f4a39dc06d4c0dbc64b70af90fd698a233a518aa5d07e595d983b8c0526c8f7fb8787604051611472929190612b23565b60405180910390a4611488818787878787611c90565b505050505050565b600073ffffffffffffffffffffffffffffffffffffffff168473ffffffffffffffffffffffffffffffffffffffff161415611500576040517f08c379a00000000000000000000000000000000000000000000000000000000081526004016114f790612c52565b60405180910390fd5b600061150a610fba565b905061152a81878761151b88611a27565b61152488611a27565b87611aa1565b600080600086815260200190815260200160002060008873ffffffffffffffffffffffffffffffffffffffff1673ffffffffffffffffffffffffffffffffffffffff168152602001908152602001600020549050838110156115c1576040517f08c379a00000000000000000000000000000000000000000000000000000000081526004016115b890612c92565b60405180910390fd5b83810360008087815260200190815260200160002060008973ffffffffffffffffffffffffffffffffffffffff1673ffffffffffffffffffffffffffffffffffffffff168152602001908152602001600020819055508360008087815260200190815260200160002060008873ffffffffffffffffffffffffffffffffffffffff1673ffffffffffffffffffffffffffffffffffffffff16815260200190815260200160002060008282546116769190612f71565b925050819055508573ffffffffffffffffffffffffffffffffffffffff168773ffffffffffffffffffffffffffffffffffffffff168373ffffffffffffffffffffffffffffffffffffffff167fc3d58168c5ae7397731d063d5bbf3d657854427343f4c083240f7aacaa2d0f6288886040516116f3929190612ded565b60405180910390a4611709828888888888611aa9565b50505050505050565b6000600360009054906101000a900473ffffffffffffffffffffffffffffffffffffffff16905081600360006101000a81548173ffffffffffffffffffffffffffffffffffffffff021916908373ffffffffffffffffffffffffffffffffffffffff1602179055508173ffffffffffffffffffffffffffffffffffffffff168173ffffffffffffffffffffffffffffffffffffffff167f8be0079c531659141344cd1fd0a4f28419497f9722a3daafe3b4186f6b6457e060405160405180910390a35050565b8173ffffffffffffffffffffffffffffffffffffffff168373ffffffffffffffffffffffffffffffffffffffff161415611847576040517f08c379a000000000000000000000000000000000000000000000000000000000815260040161183e90612d12565b60405180910390fd5b80600160008573ffffffffffffffffffffffffffffffffffffffff1673ffffffffffffffffffffffffffffffffffffffff16815260200190815260200160002060008473ffffffffffffffffffffffffffffffffffffffff1673ffffffffffffffffffffffffffffffffffffffff16815260200190815260200160002060006101000a81548160ff0219169083151502179055508173ffffffffffffffffffffffffffffffffffffffff168373ffffffffffffffffffffffffffffffffffffffff167f17307eab39ab6107e8899845ad3d59bd9653f200f220920489ca2b5937696c31836040516119389190612b5a565b60405180910390a3505050565b60007fd9b67a26000000000000000000000000000000000000000000000000000000007bffffffffffffffffffffffffffffffffffffffffffffffffffffffff1916827bffffffffffffffffffffffffffffffffffffffffffffffffffffffff19161480611a1057507f0e89341c000000000000000000000000000000000000000000000000000000007bffffffffffffffffffffffffffffffffffffffffffffffffffffffff1916827bffffffffffffffffffffffffffffffffffffffffffffffffffffffff1916145b80611a205750611a1f82611e77565b5b9050919050565b60606000600167ffffffffffffffff811115611a4657611a45613244565b5b604051908082528060200260200182016040528015611a745781602001602082028036833780820191505090505b5090508281600081518110611a8c57611a8b613215565b5b60200260200101818152505080915050919050565b505050505050565b611ac88473ffffffffffffffffffffffffffffffffffffffff16611ee1565b15611c88578373ffffffffffffffffffffffffffffffffffffffff1663f23a6e6187878686866040518663ffffffff1660e01b8152600401611b0e959493929190612a7e565b602060405180830381600087803b158015611b2857600080fd5b505af1925050508015611b5957506040513d601f19601f82011682018060405250810190611b569190612524565b60015b611bff57611b65613273565b806308c379a01415611bc25750611b7a6137bf565b80611b855750611bc4565b806040517f08c379a0000000000000000000000000000000000000000000000000000000008152600401611bb99190612b90565b60405180910390fd5b505b6040517f08c379a0000000000000000000000000000000000000000000000000000000008152600401611bf690612bb2565b60405180910390fd5b63f23a6e6160e01b7bffffffffffffffffffffffffffffffffffffffffffffffffffffffff1916817bffffffffffffffffffffffffffffffffffffffffffffffffffffffff191614611c86576040517f08c379a0000000000000000000000000000000000000000000000000000000008152600401611c7d90612bd2565b60405180910390fd5b505b505050505050565b611caf8473ffffffffffffffffffffffffffffffffffffffff16611ee1565b15611e6f578373ffffffffffffffffffffffffffffffffffffffff1663bc197c8187878686866040518663ffffffff1660e01b8152600401611cf5959493929190612a16565b602060405180830381600087803b158015611d0f57600080fd5b505af1925050508015611d4057506040513d601f19601f82011682018060405250810190611d3d9190612524565b60015b611de657611d4c613273565b806308c379a01415611da95750611d616137bf565b80611d6c5750611dab565b806040517f08c379a0000000000000000000000000000000000000000000000000000000008152600401611da09190612b90565b60405180910390fd5b505b6040517f08c379a0000000000000000000000000000000000000000000000000000000008152600401611ddd90612bb2565b60405180910390fd5b63bc197c8160e01b7bffffffffffffffffffffffffffffffffffffffffffffffffffffffff1916817bffffffffffffffffffffffffffffffffffffffffffffffffffffffff191614611e6d576040517f08c379a0000000000000000000000000000000000000000000000000000000008152600401611e6490612bd2565b60405180910390fd5b505b505050505050565b60007f01ffc9a7000000000000000000000000000000000000000000000000000000007bffffffffffffffffffffffffffffffffffffffffffffffffffffffff1916827bffffffffffffffffffffffffffffffffffffffffffffffffffffffff1916149050919050565b6000808273ffffffffffffffffffffffffffffffffffffffff163b119050919050565b828054611f109061310b565b90600052602060002090601f016020900481019282611f325760008555611f79565b82601f10611f4b57805160ff1916838001178555611f79565b82800160010185558215611f79579182015b82811115611f78578251825591602001919060010190611f5d565b5b509050611f869190611f8a565b5090565b5b80821115611fa3576000816000905550600101611f8b565b5090565b6000611fba611fb584612e3b565b612e16565b90508083825260208201905082856020860282011115611fdd57611fdc61329a565b5b60005b8581101561200d5781611ff3888261210b565b845260208401935060208301925050600181019050611fe0565b5050509392505050565b600061202a61202584612e67565b612e16565b9050808382526020820190508285602086028201111561204d5761204c61329a565b5b60005b8581101561207d57816120638882612217565b845260208401935060208301925050600181019050612050565b5050509392505050565b600061209a61209584612e93565b612e16565b9050828152602081018484840111156120b6576120b561329f565b5b6120c18482856130c9565b509392505050565b60006120dc6120d784612ec4565b612e16565b9050828152602081018484840111156120f8576120f761329f565b5b6121038482856130c9565b509392505050565b60008135905061211a81613855565b92915050565b600082601f83011261213557612134613295565b5b8135612145848260208601611fa7565b91505092915050565b600082601f83011261216357612162613295565b5b8135612173848260208601612017565b91505092915050565b60008135905061218b8161386c565b92915050565b6000813590506121a081613883565b92915050565b6000815190506121b581613883565b92915050565b600082601f8301126121d0576121cf613295565b5b81356121e0848260208601612087565b91505092915050565b600082601f8301126121fe576121fd613295565b5b813561220e8482602086016120c9565b91505092915050565b6000813590506122268161389a565b92915050565b600060208284031215612242576122416132a9565b5b60006122508482850161210b565b91505092915050565b600080604083850312156122705761226f6132a9565b5b600061227e8582860161210b565b925050602061228f8582860161210b565b9150509250929050565b600080600080600060a086880312156122b5576122b46132a9565b5b60006122c38882890161210b565b95505060206122d48882890161210b565b945050604086013567ffffffffffffffff8111156122f5576122f46132a4565b5b6123018882890161214e565b935050606086013567ffffffffffffffff811115612322576123216132a4565b5b61232e8882890161214e565b925050608086013567ffffffffffffffff81111561234f5761234e6132a4565b5b61235b888289016121bb565b9150509295509295909350565b600080600080600060a08688031215612384576123836132a9565b5b60006123928882890161210b565b95505060206123a38882890161210b565b94505060406123b488828901612217565b93505060606123c588828901612217565b925050608086013567ffffffffffffffff8111156123e6576123e56132a4565b5b6123f2888289016121bb565b9150509295509295909350565b60008060408385031215612416576124156132a9565b5b60006124248582860161210b565b92505060206124358582860161217c565b9150509250929050565b60008060408385031215612456576124556132a9565b5b60006124648582860161210b565b925050602061247585828601612217565b9150509250929050565b60008060408385031215612496576124956132a9565b5b600083013567ffffffffffffffff8111156124b4576124b36132a4565b5b6124c085828601612120565b925050602083013567ffffffffffffffff8111156124e1576124e06132a4565b5b6124ed8582860161214e565b9150509250929050565b60006020828403121561250d5761250c6132a9565b5b600061251b84828501612191565b91505092915050565b60006020828403121561253a576125396132a9565b5b6000612548848285016121a6565b91505092915050565b600060208284031215612567576125666132a9565b5b600061257584828501612217565b91505092915050565b60008060408385031215612595576125946132a9565b5b60006125a385828601612217565b92505060206125b485828601612217565b9150509250929050565b6000806000606084860312156125d7576125d66132a9565b5b60006125e586828701612217565b93505060206125f686828701612217565b925050604084013567ffffffffffffffff811115612617576126166132a4565b5b612623868287016121e9565b9150509250925092565b600061263983836129c6565b60208301905092915050565b61264e81613055565b82525050565b600061265f82612f05565b6126698185612f33565b935061267483612ef5565b8060005b838110156126a557815161268c888261262d565b975061269783612f26565b925050600181019050612678565b5085935050505092915050565b6126bb81613067565b82525050565b6126ca81613073565b82525050565b60006126db82612f10565b6126e58185612f44565b93506126f58185602086016130d8565b6126fe816132ae565b840191505092915050565b600061271482612f1b565b61271e8185612f55565b935061272e8185602086016130d8565b612737816132ae565b840191505092915050565b600061274d82612f1b565b6127578185612f66565b93506127678185602086016130d8565b80840191505092915050565b6000612780603483612f55565b915061278b826132cc565b604082019050919050565b60006127a3602883612f55565b91506127ae8261331b565b604082019050919050565b60006127c6602b83612f55565b91506127d18261336a565b604082019050919050565b60006127e9602683612f55565b91506127f4826133b9565b604082019050919050565b600061280c602983612f55565b915061281782613408565b604082019050919050565b600061282f602583612f55565b915061283a82613457565b604082019050919050565b6000612852603283612f55565b915061285d826134a6565b604082019050919050565b6000612875602a83612f55565b9150612880826134f5565b604082019050919050565b6000612898602083612f55565b91506128a382613544565b602082019050919050565b60006128bb602483612f55565b91506128c68261356d565b604082019050919050565b60006128de602d83612f55565b91506128e9826135bc565b604082019050919050565b6000612901602983612f55565b915061290c8261360b565b604082019050919050565b6000612924602983612f55565b915061292f8261365a565b604082019050919050565b6000612947602883612f55565b9150612952826136a9565b604082019050919050565b600061296a602183612f55565b9150612975826136f8565b604082019050919050565b600061298d601c83612f55565b915061299882613747565b602082019050919050565b60006129b0602483612f55565b91506129bb82613770565b604082019050919050565b6129cf816130bf565b82525050565b6129de816130bf565b82525050565b60006129f08284612742565b915081905092915050565b6000602082019050612a106000830184612645565b92915050565b600060a082019050612a2b6000830188612645565b612a386020830187612645565b8181036040830152612a4a8186612654565b90508181036060830152612a5e8185612654565b90508181036080830152612a7281846126d0565b90509695505050505050565b600060a082019050612a936000830188612645565b612aa06020830187612645565b612aad60408301866129d5565b612aba60608301856129d5565b8181036080830152612acc81846126d0565b90509695505050505050565b6000604082019050612aed6000830185612645565b612afa60208301846129d5565b9392505050565b60006020820190508181036000830152612b1b8184612654565b905092915050565b60006040820190508181036000830152612b3d8185612654565b90508181036020830152612b518184612654565b90509392505050565b6000602082019050612b6f60008301846126b2565b92915050565b6000602082019050612b8a60008301846126c1565b92915050565b60006020820190508181036000830152612baa8184612709565b905092915050565b60006020820190508181036000830152612bcb81612773565b9050919050565b60006020820190508181036000830152612beb81612796565b9050919050565b60006020820190508181036000830152612c0b816127b9565b9050919050565b60006020820190508181036000830152612c2b816127dc565b9050919050565b60006020820190508181036000830152612c4b816127ff565b9050919050565b60006020820190508181036000830152612c6b81612822565b9050919050565b60006020820190508181036000830152612c8b81612845565b9050919050565b60006020820190508181036000830152612cab81612868565b9050919050565b60006020820190508181036000830152612ccb8161288b565b9050919050565b60006020820190508181036000830152612ceb816128ae565b9050919050565b60006020820190508181036000830152612d0b816128d1565b9050919050565b60006020820190508181036000830152612d2b816128f4565b9050919050565b60006020820190508181036000830152612d4b81612917565b9050919050565b60006020820190508181036000830152612d6b8161293a565b9050919050565b60006020820190508181036000830152612d8b8161295d565b9050919050565b60006020820190508181036000830152612dab81612980565b9050919050565b60006020820190508181036000830152612dcb816129a3565b9050919050565b6000602082019050612de760008301846129d5565b92915050565b6000604082019050612e0260008301856129d5565b612e0f60208301846129d5565b9392505050565b6000612e20612e31565b9050612e2c828261313d565b919050565b6000604051905090565b600067ffffffffffffffff821115612e5657612e55613244565b5b602082029050602081019050919050565b600067ffffffffffffffff821115612e8257612e81613244565b5b602082029050602081019050919050565b600067ffffffffffffffff821115612eae57612ead613244565b5b612eb7826132ae565b9050602081019050919050565b600067ffffffffffffffff821115612edf57612ede613244565b5b612ee8826132ae565b9050602081019050919050565b6000819050602082019050919050565b600081519050919050565b600081519050919050565b600081519050919050565b6000602082019050919050565b600082825260208201905092915050565b600082825260208201905092915050565b600082825260208201905092915050565b600081905092915050565b6000612f7c826130bf565b9150612f87836130bf565b9250827fffffffffffffffffffffffffffffffffffffffffffffffffffffffffffffffff03821115612fbc57612fbb6131b7565b5b828201905092915050565b6000612fd2826130bf565b9150612fdd836130bf565b9250817fffffffffffffffffffffffffffffffffffffffffffffffffffffffffffffffff0483118215151615613016576130156131b7565b5b828202905092915050565b600061302c826130bf565b9150613037836130bf565b92508282101561304a576130496131b7565b5b828203905092915050565b60006130608261309f565b9050919050565b60008115159050919050565b60007fffffffff0000000000000000000000000000000000000000000000000000000082169050919050565b600073ffffffffffffffffffffffffffffffffffffffff82169050919050565b6000819050919050565b82818337600083830152505050565b60005b838110156130f65780820151818401526020810190506130db565b83811115613105576000848401525b50505050565b6000600282049050600182168061312357607f821691505b60208210811415613137576131366131e6565b5b50919050565b613146826132ae565b810181811067ffffffffffffffff8211171561316557613164613244565b5b80604052505050565b6000613179826130bf565b91507fffffffffffffffffffffffffffffffffffffffffffffffffffffffffffffffff8214156131ac576131ab6131b7565b5b600182019050919050565b7f4e487b7100000000000000000000000000000000000000000000000000000000600052601160045260246000fd5b7f4e487b7100000000000000000000000000000000000000000000000000000000600052602260045260246000fd5b7f4e487b7100000000000000000000000000000000000000000000000000000000600052603260045260246000fd5b7f4e487b7100000000000000000000000000000000000000000000000000000000600052604160045260246000fd5b600060033d11156132925760046000803e61328f6000516132bf565b90505b90565b600080fd5b600080fd5b600080fd5b600080fd5b600080fd5b6000601f19601f8301169050919050565b60008160e01c9050919050565b7f455243313135353a207472616e7366657220746f206e6f6e204552433131353560008201527f526563656976657220696d706c656d656e746572000000000000000000000000602082015250565b7f455243313135353a204552433131353552656365697665722072656a6563746560008201527f6420746f6b656e73000000000000000000000000000000000000000000000000602082015250565b7f455243313135353a2062616c616e636520717565727920666f7220746865207a60008201527f65726f2061646472657373000000000000000000000000000000000000000000602082015250565b7f4f776e61626c653a206e6577206f776e657220697320746865207a65726f206160008201527f6464726573730000000000000000000000000000000000000000000000000000602082015250565b7f455243313135353a2063616c6c6572206973206e6f74206f776e6572206e6f7260008201527f20617070726f7665640000000000000000000000000000000000000000000000602082015250565b7f455243313135353a207472616e7366657220746f20746865207a65726f20616460008201527f6472657373000000000000000000000000000000000000000000000000000000602082015250565b7f455243313135353a207472616e736665722063616c6c6572206973206e6f742060008201527f6f776e6572206e6f7220617070726f7665640000000000000000000000000000602082015250565b7f455243313135353a20696e73756666696369656e742062616c616e636520666f60008201527f72207472616e7366657200000000000000000000000000000000000000000000602082015250565b7f4f776e61626c653a2063616c6c6572206973206e6f7420746865206f776e6572600082015250565b7f5469636b657420737570706c79206d757374206265206772656174657220746860008201527f616e203000000000000000000000000000000000000000000000000000000000602082015250565b7f5472616e73616374696f6e2076616c7565206e6f7420657175616c20746f207060008201527f7269636520726571756972656400000000000000000000000000000000000000602082015250565b7f455243313135353a2073657474696e6720617070726f76616c2073746174757360008201527f20666f722073656c660000000000000000000000000000000000000000000000602082015250565b7f455243313135353a206163636f756e747320616e6420696473206c656e67746860008201527f206d69736d617463680000000000000000000000000000000000000000000000602082015250565b7f455243313135353a2069647320616e6420616d6f756e7473206c656e6774682060008201527f6d69736d61746368000000000000000000000000000000000000000000000000602082015250565b7f455243313135353a206d696e7420746f20746865207a65726f2061646472657360008201527f7300000000000000000000000000000000000000000000000000000000000000602082015250565b7f5072696365206d7573742062652067726561746572207468616e203000000000600082015250565b7f537570706c7920666f722074686973207469636b6574206973206e6f7420656e60008201527f6f75676800000000000000000000000000000000000000000000000000000000602082015250565b600060443d10156137cf57613852565b6137d7612e31565b60043d036004823e80513d602482011167ffffffffffffffff821117156137ff575050613852565b808201805167ffffffffffffffff81111561381d5750505050613852565b80602083010160043d03850181111561383a575050505050613852565b6138498260200185018661313d565b82955050505050505b90565b61385e81613055565b811461386957600080fd5b50565b61387581613067565b811461388057600080fd5b50565b61388c81613073565b811461389757600080fd5b50565b6138a3816130bf565b81146138ae57600080fd5b5056fea2646970667358221220fa9f1d22e5e50e4b8da85f9bf5d956f6dffb80bd4bd7c2d72edb68ec6cb7ee5164736f6c63430008070033",
  "immutableReferences": {},
  "source": "// SPDX-License-Identifier: MIT\npragma solidity ^0.8.7;\n\nimport \"@openzeppelin/contracts/access/Ownable.sol\";\nimport \"@openzeppelin/contracts/token/ERC1155/ERC1155.sol\";\nimport \"@openzeppelin/contracts/token/ERC1155/utils/ERC1155Holder.sol\";\nimport \"@openzeppelin/contracts/utils/Counters.sol\";\n\ncontract TicketStore is ERC1155, ERC1155Holder, Ownable  {\n\n    constructor() ERC1155(\"\") {}\n\n    using Counters for Counters.Counter; \n    Counters.Counter private _eventId;\n\n    struct Event {\n        uint id;\n        uint price;\n        uint ticketSupply;\n        string singer;\n    }\n\n    mapping(uint => Event) private _idToEvent;\n    mapping(address => uint) private _pendingWithdrawals;\n\n    event eventCreated(uint indexed id, uint price, uint ticketSupply, string indexed singer);\n    event ticketBuyed(uint indexed id, address _buyer, uint _amount);\n\n    function createEvent(uint _price, uint _ticketSupply, string memory _singer) onlyOwner public {\n        require(_price > 0, \"Price must be greater than 0\");\n        require(_ticketSupply > 0, \"Ticket supply must be greater than 0\");\n\n        uint _id = _eventId.current();\n        _eventId.increment();\n        _mint(address(this), _id, _ticketSupply, \"\");\n        _idToEvent[_id] = Event(\n            _id,\n            _price,\n            _ticketSupply,\n            _singer\n        );\n\n        emit eventCreated(_id, _price, _ticketSupply, _singer);\n    }\n\n    function buyEvent(uint _id, uint _amount) public payable {\n        Event memory _event = _idToEvent[_id];\n        require(_event.ticketSupply > 0 && _amount <= _event.ticketSupply, \"Supply for this ticket is not enough\");\n        require(msg.value == _event.price * _amount, \"Transaction value not equal to price required\");\n\n        _safeTransferFrom(address(this), msg.sender, _event.id, _amount, \"\");\n        _event.ticketSupply -= _amount;\n        _idToEvent[_id] = _event;\n\n        emit ticketBuyed(_id, msg.sender, _amount);\n    }\n\n    function withdraw() public {\n        uint amount = _pendingWithdrawals[msg.sender];\n        _pendingWithdrawals[msg.sender] = 0;\n        payable(msg.sender).transfer(amount);\n    }\n\n    function supportsInterface(bytes4 interfaceId)\n        public\n        view\n        override(ERC1155, ERC1155Receiver)\n        returns (bool) {\n        return super.supportsInterface(interfaceId);\n    }\n\n}",
  "sourcePath": "/home/salvatore_catania/solidity/SubgraphTest/contracts/TicketStore.sol",
  "compiler": {
    "name": "solc",
    "version": "0.8.7+commit.e28d00a7.Emscripten.clang"
  },
  "schemaVersion": "3.4.6",
  "updatedAt": "2022-03-11T16:36:55.928Z",
  "networkType": "ethereum",
  "devdoc": {
    "kind": "dev",
    "methods": {
      "balanceOf(address,uint256)": {
        "details": "See {IERC1155-balanceOf}. Requirements: - `account` cannot be the zero address."
      },
      "balanceOfBatch(address[],uint256[])": {
        "details": "See {IERC1155-balanceOfBatch}. Requirements: - `accounts` and `ids` must have the same length."
      },
      "isApprovedForAll(address,address)": {
        "details": "See {IERC1155-isApprovedForAll}."
      },
      "owner()": {
        "details": "Returns the address of the current owner."
      },
      "renounceOwnership()": {
        "details": "Leaves the contract without owner. It will not be possible to call `onlyOwner` functions anymore. Can only be called by the current owner. NOTE: Renouncing ownership will leave the contract without an owner, thereby removing any functionality that is only available to the owner."
      },
      "safeBatchTransferFrom(address,address,uint256[],uint256[],bytes)": {
        "details": "See {IERC1155-safeBatchTransferFrom}."
      },
      "safeTransferFrom(address,address,uint256,uint256,bytes)": {
        "details": "See {IERC1155-safeTransferFrom}."
      },
      "setApprovalForAll(address,bool)": {
        "details": "See {IERC1155-setApprovalForAll}."
      },
      "transferOwnership(address)": {
        "details": "Transfers ownership of the contract to a new account (`newOwner`). Can only be called by the current owner."
      },
      "uri(uint256)": {
        "details": "See {IERC1155MetadataURI-uri}. This implementation returns the same URI for *all* token types. It relies on the token type ID substitution mechanism https://eips.ethereum.org/EIPS/eip-1155#metadata[defined in the EIP]. Clients calling this function must replace the `\\{id\\}` substring with the actual token type ID."
      }
    },
    "version": 1
  },
  "userdoc": {
    "kind": "user",
    "methods": {},
    "version": 1
  }
}