{
  "contractName": "TicketStore",
  "abi": [
    {
      "inputs": [],
      "stateMutability": "nonpayable",
      "type": "constructor"
    },
    {
      "anonymous": false,
      "inputs": [
        {
          "indexed": true,
          "internalType": "address",
          "name": "account",
          "type": "address"
        },
        {
          "indexed": true,
          "internalType": "address",
          "name": "operator",
          "type": "address"
        },
        {
          "indexed": false,
          "internalType": "bool",
          "name": "approved",
          "type": "bool"
        }
      ],
      "name": "ApprovalForAll",
      "type": "event"
    },
    {
      "anonymous": false,
      "inputs": [
        {
          "indexed": true,
          "internalType": "address",
          "name": "previousOwner",
          "type": "address"
        },
        {
          "indexed": true,
          "internalType": "address",
          "name": "newOwner",
          "type": "address"
        }
      ],
      "name": "OwnershipTransferred",
      "type": "event"
    },
    {
      "anonymous": false,
      "inputs": [
        {
          "indexed": true,
          "internalType": "address",
          "name": "operator",
          "type": "address"
        },
        {
          "indexed": true,
          "internalType": "address",
          "name": "from",
          "type": "address"
        },
        {
          "indexed": true,
          "internalType": "address",
          "name": "to",
          "type": "address"
        },
        {
          "indexed": false,
          "internalType": "uint256[]",
          "name": "ids",
          "type": "uint256[]"
        },
        {
          "indexed": false,
          "internalType": "uint256[]",
          "name": "values",
          "type": "uint256[]"
        }
      ],
      "name": "TransferBatch",
      "type": "event"
    },
    {
      "anonymous": false,
      "inputs": [
        {
          "indexed": true,
          "internalType": "address",
          "name": "operator",
          "type": "address"
        },
        {
          "indexed": true,
          "internalType": "address",
          "name": "from",
          "type": "address"
        },
        {
          "indexed": true,
          "internalType": "address",
          "name": "to",
          "type": "address"
        },
        {
          "indexed": false,
          "internalType": "uint256",
          "name": "id",
          "type": "uint256"
        },
        {
          "indexed": false,
          "internalType": "uint256",
          "name": "value",
          "type": "uint256"
        }
      ],
      "name": "TransferSingle",
      "type": "event"
    },
    {
      "anonymous": false,
      "inputs": [
        {
          "indexed": false,
          "internalType": "string",
          "name": "value",
          "type": "string"
        },
        {
          "indexed": true,
          "internalType": "uint256",
          "name": "id",
          "type": "uint256"
        }
      ],
      "name": "URI",
      "type": "event"
    },
    {
      "anonymous": false,
      "inputs": [
        {
          "indexed": true,
          "internalType": "uint256",
          "name": "id",
          "type": "uint256"
        },
        {
          "indexed": false,
          "internalType": "uint256",
          "name": "price",
          "type": "uint256"
        },
        {
          "indexed": false,
          "internalType": "uint256",
          "name": "ticketSupply",
          "type": "uint256"
        },
        {
          "indexed": false,
          "internalType": "string",
          "name": "singer",
          "type": "string"
        }
      ],
      "name": "eventCreated",
      "type": "event"
    },
    {
      "anonymous": false,
      "inputs": [
        {
          "indexed": true,
          "internalType": "uint256",
          "name": "id",
          "type": "uint256"
        },
        {
          "indexed": false,
          "internalType": "address",
          "name": "_buyer",
          "type": "address"
        },
        {
          "indexed": false,
          "internalType": "uint256",
          "name": "_amount",
          "type": "uint256"
        }
      ],
      "name": "ticketBuyed",
      "type": "event"
    },
    {
      "inputs": [
        {
          "internalType": "address",
          "name": "account",
          "type": "address"
        },
        {
          "internalType": "uint256",
          "name": "id",
          "type": "uint256"
        }
      ],
      "name": "balanceOf",
      "outputs": [
        {
          "internalType": "uint256",
          "name": "",
          "type": "uint256"
        }
      ],
      "stateMutability": "view",
      "type": "function"
    },
    {
      "inputs": [
        {
          "internalType": "address[]",
          "name": "accounts",
          "type": "address[]"
        },
        {
          "internalType": "uint256[]",
          "name": "ids",
          "type": "uint256[]"
        }
      ],
      "name": "balanceOfBatch",
      "outputs": [
        {
          "internalType": "uint256[]",
          "name": "",
          "type": "uint256[]"
        }
      ],
      "stateMutability": "view",
      "type": "function"
    },
    {
      "inputs": [
        {
          "internalType": "address",
          "name": "account",
          "type": "address"
        },
        {
          "internalType": "address",
          "name": "operator",
          "type": "address"
        }
      ],
      "name": "isApprovedForAll",
      "outputs": [
        {
          "internalType": "bool",
          "name": "",
          "type": "bool"
        }
      ],
      "stateMutability": "view",
      "type": "function"
    },
    {
      "inputs": [
        {
          "internalType": "address",
          "name": "",
          "type": "address"
        },
        {
          "internalType": "address",
          "name": "",
          "type": "address"
        },
        {
          "internalType": "uint256[]",
          "name": "",
          "type": "uint256[]"
        },
        {
          "internalType": "uint256[]",
          "name": "",
          "type": "uint256[]"
        },
        {
          "internalType": "bytes",
          "name": "",
          "type": "bytes"
        }
      ],
      "name": "onERC1155BatchReceived",
      "outputs": [
        {
          "internalType": "bytes4",
          "name": "",
          "type": "bytes4"
        }
      ],
      "stateMutability": "nonpayable",
      "type": "function"
    },
    {
      "inputs": [
        {
          "internalType": "address",
          "name": "",
          "type": "address"
        },
        {
          "internalType": "address",
          "name": "",
          "type": "address"
        },
        {
          "internalType": "uint256",
          "name": "",
          "type": "uint256"
        },
        {
          "internalType": "uint256",
          "name": "",
          "type": "uint256"
        },
        {
          "internalType": "bytes",
          "name": "",
          "type": "bytes"
        }
      ],
      "name": "onERC1155Received",
      "outputs": [
        {
          "internalType": "bytes4",
          "name": "",
          "type": "bytes4"
        }
      ],
      "stateMutability": "nonpayable",
      "type": "function"
    },
    {
      "inputs": [],
      "name": "owner",
      "outputs": [
        {
          "internalType": "address",
          "name": "",
          "type": "address"
        }
      ],
      "stateMutability": "view",
      "type": "function"
    },
    {
      "inputs": [],
      "name": "renounceOwnership",
      "outputs": [],
      "stateMutability": "nonpayable",
      "type": "function"
    },
    {
      "inputs": [
        {
          "internalType": "address",
          "name": "from",
          "type": "address"
        },
        {
          "internalType": "address",
          "name": "to",
          "type": "address"
        },
        {
          "internalType": "uint256[]",
          "name": "ids",
          "type": "uint256[]"
        },
        {
          "internalType": "uint256[]",
          "name": "amounts",
          "type": "uint256[]"
        },
        {
          "internalType": "bytes",
          "name": "data",
          "type": "bytes"
        }
      ],
      "name": "safeBatchTransferFrom",
      "outputs": [],
      "stateMutability": "nonpayable",
      "type": "function"
    },
    {
      "inputs": [
        {
          "internalType": "address",
          "name": "from",
          "type": "address"
        },
        {
          "internalType": "address",
          "name": "to",
          "type": "address"
        },
        {
          "internalType": "uint256",
          "name": "id",
          "type": "uint256"
        },
        {
          "internalType": "uint256",
          "name": "amount",
          "type": "uint256"
        },
        {
          "internalType": "bytes",
          "name": "data",
          "type": "bytes"
        }
      ],
      "name": "safeTransferFrom",
      "outputs": [],
      "stateMutability": "nonpayable",
      "type": "function"
    },
    {
      "inputs": [
        {
          "internalType": "address",
          "name": "operator",
          "type": "address"
        },
        {
          "internalType": "bool",
          "name": "approved",
          "type": "bool"
        }
      ],
      "name": "setApprovalForAll",
      "outputs": [],
      "stateMutability": "nonpayable",
      "type": "function"
    },
    {
      "inputs": [
        {
          "internalType": "address",
          "name": "newOwner",
          "type": "address"
        }
      ],
      "name": "transferOwnership",
      "outputs": [],
      "stateMutability": "nonpayable",
      "type": "function"
    },
    {
      "inputs": [
        {
          "internalType": "uint256",
          "name": "",
          "type": "uint256"
        }
      ],
      "name": "uri",
      "outputs": [
        {
          "internalType": "string",
          "name": "",
          "type": "string"
        }
      ],
      "stateMutability": "view",
      "type": "function"
    },
    {
      "inputs": [
        {
          "internalType": "uint256",
          "name": "_price",
          "type": "uint256"
        },
        {
          "internalType": "uint256",
          "name": "_ticketSupply",
          "type": "uint256"
        },
        {
          "internalType": "string",
          "name": "_singer",
          "type": "string"
        }
      ],
      "name": "createEvent",
      "outputs": [],
      "stateMutability": "nonpayable",
      "type": "function"
    },
    {
      "inputs": [
        {
          "internalType": "uint256",
          "name": "_id",
          "type": "uint256"
        },
        {
          "internalType": "uint256",
          "name": "_amount",
          "type": "uint256"
        }
      ],
      "name": "buyEvent",
      "outputs": [],
      "stateMutability": "payable",
      "type": "function"
    },
    {
      "inputs": [],
      "name": "withdraw",
      "outputs": [],
      "stateMutability": "nonpayable",
      "type": "function"
    },
    {
      "inputs": [
        {
          "internalType": "bytes4",
          "name": "interfaceId",
          "type": "bytes4"
        }
      ],
      "name": "supportsInterface",
      "outputs": [
        {
          "internalType": "bool",
          "name": "",
          "type": "bool"
        }
      ],
      "stateMutability": "view",
      "type": "function"
    }
  ],
  "bytecode": "0x60806040523480156200001157600080fd5b506040518060200160405280600081525062000033816200005a60201b60201c565b5062000054620000486200007660201b60201c565b6200007e60201b60201c565b62000259565b80600290805190602001906200007292919062000144565b5050565b600033905090565b6000600360009054906101000a900473ffffffffffffffffffffffffffffffffffffffff16905081600360006101000a81548173ffffffffffffffffffffffffffffffffffffffff021916908373ffffffffffffffffffffffffffffffffffffffff1602179055508173ffffffffffffffffffffffffffffffffffffffff168173ffffffffffffffffffffffffffffffffffffffff167f8be0079c531659141344cd1fd0a4f28419497f9722a3daafe3b4186f6b6457e060405160405180910390a35050565b8280546200015290620001f4565b90600052602060002090601f016020900481019282620001765760008555620001c2565b82601f106200019157805160ff1916838001178555620001c2565b82800160010185558215620001c2579182015b82811115620001c1578251825591602001919060010190620001a4565b5b509050620001d19190620001d5565b5090565b5b80821115620001f0576000816000905550600101620001d6565b5090565b600060028204905060018216806200020d57607f821691505b602082108114156200022457620002236200022a565b5b50919050565b7f4e487b7100000000000000000000000000000000000000000000000000000000600052602260045260246000fd5b6138be80620002696000396000f3fe6080604052600436106100f25760003560e01c8063715018a61161008a578063e985e9c511610059578063e985e9c514610318578063f23a6e6114610355578063f242432a14610392578063f2fde38b146103bb576100f2565b8063715018a6146102705780638da5cb5b14610287578063a22cb465146102b2578063bc197c81146102db576100f2565b80632eb2c2d6116100c65780632eb2c2d6146101d75780633ccfd60b146102005780634e1273f4146102175780635535113a14610254576100f2565b8062fdd58e146100f757806301ffc9a7146101345780630e89341c14610171578063294e0d56146101ae575b600080fd5b34801561010357600080fd5b5061011e6004803603810190610119919061242b565b6103e4565b60405161012b9190612d76565b60405180910390f35b34801561014057600080fd5b5061015b600480360381019061015691906124e3565b6104ad565b6040516101689190612afe565b60405180910390f35b34801561017d57600080fd5b506101986004803603810190610193919061253d565b6104bf565b6040516101a59190612b34565b60405180910390f35b3480156101ba57600080fd5b506101d560048036038101906101d091906125aa565b610553565b005b3480156101e357600080fd5b506101fe60048036038101906101f99190612285565b61073c565b005b34801561020c57600080fd5b506102156107dd565b005b34801561022357600080fd5b5061023e6004803603810190610239919061246b565b6108b0565b60405161024b9190612aa5565b60405180910390f35b61026e6004803603810190610269919061256a565b6109c9565b005b34801561027c57600080fd5b50610285610c0d565b005b34801561029357600080fd5b5061029c610c95565b6040516102a9919061299f565b60405180910390f35b3480156102be57600080fd5b506102d960048036038101906102d491906123eb565b610cbf565b005b3480156102e757600080fd5b5061030260048036038101906102fd9190612285565b610cd5565b60405161030f9190612b19565b60405180910390f35b34801561032457600080fd5b5061033f600480360381019061033a9190612245565b610cea565b60405161034c9190612afe565b60405180910390f35b34801561036157600080fd5b5061037c60048036038101906103779190612354565b610d7e565b6040516103899190612b19565b60405180910390f35b34801561039e57600080fd5b506103b960048036038101906103b49190612354565b610d93565b005b3480156103c757600080fd5b506103e260048036038101906103dd9190612218565b610e34565b005b60008073ffffffffffffffffffffffffffffffffffffffff168373ffffffffffffffffffffffffffffffffffffffff161415610455576040517f08c379a000000000000000000000000000000000000000000000000000000000815260040161044c90612b96565b60405180910390fd5b60008083815260200190815260200160002060008473ffffffffffffffffffffffffffffffffffffffff1673ffffffffffffffffffffffffffffffffffffffff16815260200190815260200160002054905092915050565b60006104b882610f2c565b9050919050565b6060600280546104ce906130e2565b80601f01602080910402602001604051908101604052809291908181526020018280546104fa906130e2565b80156105475780601f1061051c57610100808354040283529160200191610547565b820191906000526020600020905b81548152906001019060200180831161052a57829003601f168201915b50505050509050919050565b61055b610fa6565b73ffffffffffffffffffffffffffffffffffffffff16610579610c95565b73ffffffffffffffffffffffffffffffffffffffff16146105cf576040517f08c379a00000000000000000000000000000000000000000000000000000000081526004016105c690612c56565b60405180910390fd5b60008311610612576040517f08c379a000000000000000000000000000000000000000000000000000000000815260040161060990612d36565b60405180910390fd5b60008211610655576040517f08c379a000000000000000000000000000000000000000000000000000000000815260040161064c90612c76565b60405180910390fd5b60006106616004610fae565b905061066d6004610fbc565b61068830828560405180602001604052806000815250610fd2565b6040518060800160405280828152602001858152602001848152602001838152506005600083815260200190815260200160002060008201518160000155602082015181600101556040820151816002015560608201518160030190805190602001906106f6929190611ef0565b50905050807fed03d9972139a59f727933c94d5cc694e4a510dffa7501ec84d0f64c2cda440185858560405161072e93929190612dba565b60405180910390a250505050565b610744610fa6565b73ffffffffffffffffffffffffffffffffffffffff168573ffffffffffffffffffffffffffffffffffffffff16148061078a575061078985610784610fa6565b610cea565b5b6107c9576040517f08c379a00000000000000000000000000000000000000000000000000000000081526004016107c090612c16565b60405180910390fd5b6107d68585858585611168565b5050505050565b6000600660003373ffffffffffffffffffffffffffffffffffffffff1673ffffffffffffffffffffffffffffffffffffffff1681526020019081526020016000205490506000600660003373ffffffffffffffffffffffffffffffffffffffff1673ffffffffffffffffffffffffffffffffffffffff168152602001908152602001600020819055503373ffffffffffffffffffffffffffffffffffffffff166108fc829081150290604051600060405180830381858888f193505050501580156108ac573d6000803e3d6000fd5b5050565b606081518351146108f6576040517f08c379a00000000000000000000000000000000000000000000000000000000081526004016108ed90612cd6565b60405180910390fd5b6000835167ffffffffffffffff8111156109135761091261321b565b5b6040519080825280602002602001820160405280156109415781602001602082028036833780820191505090505b50905060005b84518110156109be5761098e858281518110610966576109656131ec565b5b6020026020010151858381518110610981576109806131ec565b5b60200260200101516103e4565b8282815181106109a1576109a06131ec565b5b602002602001018181525050806109b790613145565b9050610947565b508091505092915050565b600060056000848152602001908152602001600020604051806080016040529081600082015481526020016001820154815260200160028201548152602001600382018054610a17906130e2565b80601f0160208091040260200160405190810160405280929190818152602001828054610a43906130e2565b8015610a905780601f10610a6557610100808354040283529160200191610a90565b820191906000526020600020905b815481529060010190602001808311610a7357829003601f168201915b505050505081525050905060008160400151118015610ab3575080604001518211155b610af2576040517f08c379a0000000000000000000000000000000000000000000000000000000008152600401610ae990612d56565b60405180910390fd5b818160200151610b029190612f9e565b3414610b43576040517f08c379a0000000000000000000000000000000000000000000000000000000008152600401610b3a90612c96565b60405180910390fd5b610b6330338360000151856040518060200160405280600081525061147c565b8181604001818151610b759190612ff8565b9150818152505080600560008581526020019081526020016000206000820151816000015560208201518160010155604082015181600201556060820151816003019080519060200190610bca929190611ef0565b50905050827fe5efdb06d47358a02fe6c3a1567c7fd5d7b258b626fd0a281731787feffee6f23384604051610c00929190612a7c565b60405180910390a2505050565b610c15610fa6565b73ffffffffffffffffffffffffffffffffffffffff16610c33610c95565b73ffffffffffffffffffffffffffffffffffffffff1614610c89576040517f08c379a0000000000000000000000000000000000000000000000000000000008152600401610c8090612c56565b60405180910390fd5b610c9360006116fe565b565b6000600360009054906101000a900473ffffffffffffffffffffffffffffffffffffffff16905090565b610cd1610cca610fa6565b83836117c4565b5050565b600063bc197c8160e01b905095945050505050565b6000600160008473ffffffffffffffffffffffffffffffffffffffff1673ffffffffffffffffffffffffffffffffffffffff16815260200190815260200160002060008373ffffffffffffffffffffffffffffffffffffffff1673ffffffffffffffffffffffffffffffffffffffff16815260200190815260200160002060009054906101000a900460ff16905092915050565b600063f23a6e6160e01b905095945050505050565b610d9b610fa6565b73ffffffffffffffffffffffffffffffffffffffff168573ffffffffffffffffffffffffffffffffffffffff161480610de15750610de085610ddb610fa6565b610cea565b5b610e20576040517f08c379a0000000000000000000000000000000000000000000000000000000008152600401610e1790612bd6565b60405180910390fd5b610e2d858585858561147c565b5050505050565b610e3c610fa6565b73ffffffffffffffffffffffffffffffffffffffff16610e5a610c95565b73ffffffffffffffffffffffffffffffffffffffff1614610eb0576040517f08c379a0000000000000000000000000000000000000000000000000000000008152600401610ea790612c56565b60405180910390fd5b600073ffffffffffffffffffffffffffffffffffffffff168173ffffffffffffffffffffffffffffffffffffffff161415610f20576040517f08c379a0000000000000000000000000000000000000000000000000000000008152600401610f1790612bb6565b60405180910390fd5b610f29816116fe565b50565b60007f4e2312e0000000000000000000000000000000000000000000000000000000007bffffffffffffffffffffffffffffffffffffffffffffffffffffffff1916827bffffffffffffffffffffffffffffffffffffffffffffffffffffffff19161480610f9f5750610f9e82611931565b5b9050919050565b600033905090565b600081600001549050919050565b6001816000016000828254019250508190555050565b600073ffffffffffffffffffffffffffffffffffffffff168473ffffffffffffffffffffffffffffffffffffffff161415611042576040517f08c379a000000000000000000000000000000000000000000000000000000000815260040161103990612d16565b60405180910390fd5b600061104c610fa6565b905061106d8160008761105e88611a13565b61106788611a13565b87611a8d565b8260008086815260200190815260200160002060008773ffffffffffffffffffffffffffffffffffffffff1673ffffffffffffffffffffffffffffffffffffffff16815260200190815260200160002060008282546110cc9190612f48565b925050819055508473ffffffffffffffffffffffffffffffffffffffff16600073ffffffffffffffffffffffffffffffffffffffff168273ffffffffffffffffffffffffffffffffffffffff167fc3d58168c5ae7397731d063d5bbf3d657854427343f4c083240f7aacaa2d0f62878760405161114a929190612d91565b60405180910390a461116181600087878787611a95565b5050505050565b81518351146111ac576040517f08c379a00000000000000000000000000000000000000000000000000000000081526004016111a390612cf6565b60405180910390fd5b600073ffffffffffffffffffffffffffffffffffffffff168473ffffffffffffffffffffffffffffffffffffffff16141561121c576040517f08c379a000000000000000000000000000000000000000000000000000000000815260040161121390612bf6565b60405180910390fd5b6000611226610fa6565b9050611236818787878787611a8d565b60005b84518110156113e7576000858281518110611257576112566131ec565b5b602002602001015190506000858381518110611276576112756131ec565b5b60200260200101519050600080600084815260200190815260200160002060008b73ffffffffffffffffffffffffffffffffffffffff1673ffffffffffffffffffffffffffffffffffffffff16815260200190815260200160002054905081811015611317576040517f08c379a000000000000000000000000000000000000000000000000000000000815260040161130e90612c36565b60405180910390fd5b81810360008085815260200190815260200160002060008c73ffffffffffffffffffffffffffffffffffffffff1673ffffffffffffffffffffffffffffffffffffffff168152602001908152602001600020819055508160008085815260200190815260200160002060008b73ffffffffffffffffffffffffffffffffffffffff1673ffffffffffffffffffffffffffffffffffffffff16815260200190815260200160002060008282546113cc9190612f48565b92505081905550505050806113e090613145565b9050611239565b508473ffffffffffffffffffffffffffffffffffffffff168673ffffffffffffffffffffffffffffffffffffffff168273ffffffffffffffffffffffffffffffffffffffff167f4a39dc06d4c0dbc64b70af90fd698a233a518aa5d07e595d983b8c0526c8f7fb878760405161145e929190612ac7565b60405180910390a4611474818787878787611c7c565b505050505050565b600073ffffffffffffffffffffffffffffffffffffffff168473ffffffffffffffffffffffffffffffffffffffff1614156114ec576040517f08c379a00000000000000000000000000000000000000000000000000000000081526004016114e390612bf6565b60405180910390fd5b60006114f6610fa6565b905061151681878761150788611a13565b61151088611a13565b87611a8d565b600080600086815260200190815260200160002060008873ffffffffffffffffffffffffffffffffffffffff1673ffffffffffffffffffffffffffffffffffffffff168152602001908152602001600020549050838110156115ad576040517f08c379a00000000000000000000000000000000000000000000000000000000081526004016115a490612c36565b60405180910390fd5b83810360008087815260200190815260200160002060008973ffffffffffffffffffffffffffffffffffffffff1673ffffffffffffffffffffffffffffffffffffffff168152602001908152602001600020819055508360008087815260200190815260200160002060008873ffffffffffffffffffffffffffffffffffffffff1673ffffffffffffffffffffffffffffffffffffffff16815260200190815260200160002060008282546116629190612f48565b925050819055508573ffffffffffffffffffffffffffffffffffffffff168773ffffffffffffffffffffffffffffffffffffffff168373ffffffffffffffffffffffffffffffffffffffff167fc3d58168c5ae7397731d063d5bbf3d657854427343f4c083240f7aacaa2d0f6288886040516116df929190612d91565b60405180910390a46116f5828888888888611a95565b50505050505050565b6000600360009054906101000a900473ffffffffffffffffffffffffffffffffffffffff16905081600360006101000a81548173ffffffffffffffffffffffffffffffffffffffff021916908373ffffffffffffffffffffffffffffffffffffffff1602179055508173ffffffffffffffffffffffffffffffffffffffff168173ffffffffffffffffffffffffffffffffffffffff167f8be0079c531659141344cd1fd0a4f28419497f9722a3daafe3b4186f6b6457e060405160405180910390a35050565b8173ffffffffffffffffffffffffffffffffffffffff168373ffffffffffffffffffffffffffffffffffffffff161415611833576040517f08c379a000000000000000000000000000000000000000000000000000000000815260040161182a90612cb6565b60405180910390fd5b80600160008573ffffffffffffffffffffffffffffffffffffffff1673ffffffffffffffffffffffffffffffffffffffff16815260200190815260200160002060008473ffffffffffffffffffffffffffffffffffffffff1673ffffffffffffffffffffffffffffffffffffffff16815260200190815260200160002060006101000a81548160ff0219169083151502179055508173ffffffffffffffffffffffffffffffffffffffff168373ffffffffffffffffffffffffffffffffffffffff167f17307eab39ab6107e8899845ad3d59bd9653f200f220920489ca2b5937696c31836040516119249190612afe565b60405180910390a3505050565b60007fd9b67a26000000000000000000000000000000000000000000000000000000007bffffffffffffffffffffffffffffffffffffffffffffffffffffffff1916827bffffffffffffffffffffffffffffffffffffffffffffffffffffffff191614806119fc57507f0e89341c000000000000000000000000000000000000000000000000000000007bffffffffffffffffffffffffffffffffffffffffffffffffffffffff1916827bffffffffffffffffffffffffffffffffffffffffffffffffffffffff1916145b80611a0c5750611a0b82611e63565b5b9050919050565b60606000600167ffffffffffffffff811115611a3257611a3161321b565b5b604051908082528060200260200182016040528015611a605781602001602082028036833780820191505090505b5090508281600081518110611a7857611a776131ec565b5b60200260200101818152505080915050919050565b505050505050565b611ab48473ffffffffffffffffffffffffffffffffffffffff16611ecd565b15611c74578373ffffffffffffffffffffffffffffffffffffffff1663f23a6e6187878686866040518663ffffffff1660e01b8152600401611afa959493929190612a22565b602060405180830381600087803b158015611b1457600080fd5b505af1925050508015611b4557506040513d601f19601f82011682018060405250810190611b429190612510565b60015b611beb57611b5161324a565b806308c379a01415611bae5750611b66613796565b80611b715750611bb0565b806040517f08c379a0000000000000000000000000000000000000000000000000000000008152600401611ba59190612b34565b60405180910390fd5b505b6040517f08c379a0000000000000000000000000000000000000000000000000000000008152600401611be290612b56565b60405180910390fd5b63f23a6e6160e01b7bffffffffffffffffffffffffffffffffffffffffffffffffffffffff1916817bffffffffffffffffffffffffffffffffffffffffffffffffffffffff191614611c72576040517f08c379a0000000000000000000000000000000000000000000000000000000008152600401611c6990612b76565b60405180910390fd5b505b505050505050565b611c9b8473ffffffffffffffffffffffffffffffffffffffff16611ecd565b15611e5b578373ffffffffffffffffffffffffffffffffffffffff1663bc197c8187878686866040518663ffffffff1660e01b8152600401611ce19594939291906129ba565b602060405180830381600087803b158015611cfb57600080fd5b505af1925050508015611d2c57506040513d601f19601f82011682018060405250810190611d299190612510565b60015b611dd257611d3861324a565b806308c379a01415611d955750611d4d613796565b80611d585750611d97565b806040517f08c379a0000000000000000000000000000000000000000000000000000000008152600401611d8c9190612b34565b60405180910390fd5b505b6040517f08c379a0000000000000000000000000000000000000000000000000000000008152600401611dc990612b56565b60405180910390fd5b63bc197c8160e01b7bffffffffffffffffffffffffffffffffffffffffffffffffffffffff1916817bffffffffffffffffffffffffffffffffffffffffffffffffffffffff191614611e59576040517f08c379a0000000000000000000000000000000000000000000000000000000008152600401611e5090612b76565b60405180910390fd5b505b505050505050565b60007f01ffc9a7000000000000000000000000000000000000000000000000000000007bffffffffffffffffffffffffffffffffffffffffffffffffffffffff1916827bffffffffffffffffffffffffffffffffffffffffffffffffffffffff1916149050919050565b6000808273ffffffffffffffffffffffffffffffffffffffff163b119050919050565b828054611efc906130e2565b90600052602060002090601f016020900481019282611f1e5760008555611f65565b82601f10611f3757805160ff1916838001178555611f65565b82800160010185558215611f65579182015b82811115611f64578251825591602001919060010190611f49565b5b509050611f729190611f76565b5090565b5b80821115611f8f576000816000905550600101611f77565b5090565b6000611fa6611fa184612e1d565b612df8565b90508083825260208201905082856020860282011115611fc957611fc8613271565b5b60005b85811015611ff95781611fdf88826120f7565b845260208401935060208301925050600181019050611fcc565b5050509392505050565b600061201661201184612e49565b612df8565b9050808382526020820190508285602086028201111561203957612038613271565b5b60005b85811015612069578161204f8882612203565b84526020840193506020830192505060018101905061203c565b5050509392505050565b600061208661208184612e75565b612df8565b9050828152602081018484840111156120a2576120a1613276565b5b6120ad8482856130a0565b509392505050565b60006120c86120c384612ea6565b612df8565b9050828152602081018484840111156120e4576120e3613276565b5b6120ef8482856130a0565b509392505050565b6000813590506121068161382c565b92915050565b600082601f8301126121215761212061326c565b5b8135612131848260208601611f93565b91505092915050565b600082601f83011261214f5761214e61326c565b5b813561215f848260208601612003565b91505092915050565b60008135905061217781613843565b92915050565b60008135905061218c8161385a565b92915050565b6000815190506121a18161385a565b92915050565b600082601f8301126121bc576121bb61326c565b5b81356121cc848260208601612073565b91505092915050565b600082601f8301126121ea576121e961326c565b5b81356121fa8482602086016120b5565b91505092915050565b60008135905061221281613871565b92915050565b60006020828403121561222e5761222d613280565b5b600061223c848285016120f7565b91505092915050565b6000806040838503121561225c5761225b613280565b5b600061226a858286016120f7565b925050602061227b858286016120f7565b9150509250929050565b600080600080600060a086880312156122a1576122a0613280565b5b60006122af888289016120f7565b95505060206122c0888289016120f7565b945050604086013567ffffffffffffffff8111156122e1576122e061327b565b5b6122ed8882890161213a565b935050606086013567ffffffffffffffff81111561230e5761230d61327b565b5b61231a8882890161213a565b925050608086013567ffffffffffffffff81111561233b5761233a61327b565b5b612347888289016121a7565b9150509295509295909350565b600080600080600060a086880312156123705761236f613280565b5b600061237e888289016120f7565b955050602061238f888289016120f7565b94505060406123a088828901612203565b93505060606123b188828901612203565b925050608086013567ffffffffffffffff8111156123d2576123d161327b565b5b6123de888289016121a7565b9150509295509295909350565b6000806040838503121561240257612401613280565b5b6000612410858286016120f7565b925050602061242185828601612168565b9150509250929050565b6000806040838503121561244257612441613280565b5b6000612450858286016120f7565b925050602061246185828601612203565b9150509250929050565b6000806040838503121561248257612481613280565b5b600083013567ffffffffffffffff8111156124a05761249f61327b565b5b6124ac8582860161210c565b925050602083013567ffffffffffffffff8111156124cd576124cc61327b565b5b6124d98582860161213a565b9150509250929050565b6000602082840312156124f9576124f8613280565b5b60006125078482850161217d565b91505092915050565b60006020828403121561252657612525613280565b5b600061253484828501612192565b91505092915050565b60006020828403121561255357612552613280565b5b600061256184828501612203565b91505092915050565b6000806040838503121561258157612580613280565b5b600061258f85828601612203565b92505060206125a085828601612203565b9150509250929050565b6000806000606084860312156125c3576125c2613280565b5b60006125d186828701612203565b93505060206125e286828701612203565b925050604084013567ffffffffffffffff8111156126035761260261327b565b5b61260f868287016121d5565b9150509250925092565b60006126258383612981565b60208301905092915050565b61263a8161302c565b82525050565b600061264b82612ee7565b6126558185612f15565b935061266083612ed7565b8060005b838110156126915781516126788882612619565b975061268383612f08565b925050600181019050612664565b5085935050505092915050565b6126a78161303e565b82525050565b6126b68161304a565b82525050565b60006126c782612ef2565b6126d18185612f26565b93506126e18185602086016130af565b6126ea81613285565b840191505092915050565b600061270082612efd565b61270a8185612f37565b935061271a8185602086016130af565b61272381613285565b840191505092915050565b600061273b603483612f37565b9150612746826132a3565b604082019050919050565b600061275e602883612f37565b9150612769826132f2565b604082019050919050565b6000612781602b83612f37565b915061278c82613341565b604082019050919050565b60006127a4602683612f37565b91506127af82613390565b604082019050919050565b60006127c7602983612f37565b91506127d2826133df565b604082019050919050565b60006127ea602583612f37565b91506127f58261342e565b604082019050919050565b600061280d603283612f37565b91506128188261347d565b604082019050919050565b6000612830602a83612f37565b915061283b826134cc565b604082019050919050565b6000612853602083612f37565b915061285e8261351b565b602082019050919050565b6000612876602483612f37565b915061288182613544565b604082019050919050565b6000612899602d83612f37565b91506128a482613593565b604082019050919050565b60006128bc602983612f37565b91506128c7826135e2565b604082019050919050565b60006128df602983612f37565b91506128ea82613631565b604082019050919050565b6000612902602883612f37565b915061290d82613680565b604082019050919050565b6000612925602183612f37565b9150612930826136cf565b604082019050919050565b6000612948601c83612f37565b91506129538261371e565b602082019050919050565b600061296b602483612f37565b915061297682613747565b604082019050919050565b61298a81613096565b82525050565b61299981613096565b82525050565b60006020820190506129b46000830184612631565b92915050565b600060a0820190506129cf6000830188612631565b6129dc6020830187612631565b81810360408301526129ee8186612640565b90508181036060830152612a028185612640565b90508181036080830152612a1681846126bc565b90509695505050505050565b600060a082019050612a376000830188612631565b612a446020830187612631565b612a516040830186612990565b612a5e6060830185612990565b8181036080830152612a7081846126bc565b90509695505050505050565b6000604082019050612a916000830185612631565b612a9e6020830184612990565b9392505050565b60006020820190508181036000830152612abf8184612640565b905092915050565b60006040820190508181036000830152612ae18185612640565b90508181036020830152612af58184612640565b90509392505050565b6000602082019050612b13600083018461269e565b92915050565b6000602082019050612b2e60008301846126ad565b92915050565b60006020820190508181036000830152612b4e81846126f5565b905092915050565b60006020820190508181036000830152612b6f8161272e565b9050919050565b60006020820190508181036000830152612b8f81612751565b9050919050565b60006020820190508181036000830152612baf81612774565b9050919050565b60006020820190508181036000830152612bcf81612797565b9050919050565b60006020820190508181036000830152612bef816127ba565b9050919050565b60006020820190508181036000830152612c0f816127dd565b9050919050565b60006020820190508181036000830152612c2f81612800565b9050919050565b60006020820190508181036000830152612c4f81612823565b9050919050565b60006020820190508181036000830152612c6f81612846565b9050919050565b60006020820190508181036000830152612c8f81612869565b9050919050565b60006020820190508181036000830152612caf8161288c565b9050919050565b60006020820190508181036000830152612ccf816128af565b9050919050565b60006020820190508181036000830152612cef816128d2565b9050919050565b60006020820190508181036000830152612d0f816128f5565b9050919050565b60006020820190508181036000830152612d2f81612918565b9050919050565b60006020820190508181036000830152612d4f8161293b565b9050919050565b60006020820190508181036000830152612d6f8161295e565b9050919050565b6000602082019050612d8b6000830184612990565b92915050565b6000604082019050612da66000830185612990565b612db36020830184612990565b9392505050565b6000606082019050612dcf6000830186612990565b612ddc6020830185612990565b8181036040830152612dee81846126f5565b9050949350505050565b6000612e02612e13565b9050612e0e8282613114565b919050565b6000604051905090565b600067ffffffffffffffff821115612e3857612e3761321b565b5b602082029050602081019050919050565b600067ffffffffffffffff821115612e6457612e6361321b565b5b602082029050602081019050919050565b600067ffffffffffffffff821115612e9057612e8f61321b565b5b612e9982613285565b9050602081019050919050565b600067ffffffffffffffff821115612ec157612ec061321b565b5b612eca82613285565b9050602081019050919050565b6000819050602082019050919050565b600081519050919050565b600081519050919050565b600081519050919050565b6000602082019050919050565b600082825260208201905092915050565b600082825260208201905092915050565b600082825260208201905092915050565b6000612f5382613096565b9150612f5e83613096565b9250827fffffffffffffffffffffffffffffffffffffffffffffffffffffffffffffffff03821115612f9357612f9261318e565b5b828201905092915050565b6000612fa982613096565b9150612fb483613096565b9250817fffffffffffffffffffffffffffffffffffffffffffffffffffffffffffffffff0483118215151615612fed57612fec61318e565b5b828202905092915050565b600061300382613096565b915061300e83613096565b9250828210156130215761302061318e565b5b828203905092915050565b600061303782613076565b9050919050565b60008115159050919050565b60007fffffffff0000000000000000000000000000000000000000000000000000000082169050919050565b600073ffffffffffffffffffffffffffffffffffffffff82169050919050565b6000819050919050565b82818337600083830152505050565b60005b838110156130cd5780820151818401526020810190506130b2565b838111156130dc576000848401525b50505050565b600060028204905060018216806130fa57607f821691505b6020821081141561310e5761310d6131bd565b5b50919050565b61311d82613285565b810181811067ffffffffffffffff8211171561313c5761313b61321b565b5b80604052505050565b600061315082613096565b91507fffffffffffffffffffffffffffffffffffffffffffffffffffffffffffffffff8214156131835761318261318e565b5b600182019050919050565b7f4e487b7100000000000000000000000000000000000000000000000000000000600052601160045260246000fd5b7f4e487b7100000000000000000000000000000000000000000000000000000000600052602260045260246000fd5b7f4e487b7100000000000000000000000000000000000000000000000000000000600052603260045260246000fd5b7f4e487b7100000000000000000000000000000000000000000000000000000000600052604160045260246000fd5b600060033d11156132695760046000803e613266600051613296565b90505b90565b600080fd5b600080fd5b600080fd5b600080fd5b600080fd5b6000601f19601f8301169050919050565b60008160e01c9050919050565b7f455243313135353a207472616e7366657220746f206e6f6e204552433131353560008201527f526563656976657220696d706c656d656e746572000000000000000000000000602082015250565b7f455243313135353a204552433131353552656365697665722072656a6563746560008201527f6420746f6b656e73000000000000000000000000000000000000000000000000602082015250565b7f455243313135353a2062616c616e636520717565727920666f7220746865207a60008201527f65726f2061646472657373000000000000000000000000000000000000000000602082015250565b7f4f776e61626c653a206e6577206f776e657220697320746865207a65726f206160008201527f6464726573730000000000000000000000000000000000000000000000000000602082015250565b7f455243313135353a2063616c6c6572206973206e6f74206f776e6572206e6f7260008201527f20617070726f7665640000000000000000000000000000000000000000000000602082015250565b7f455243313135353a207472616e7366657220746f20746865207a65726f20616460008201527f6472657373000000000000000000000000000000000000000000000000000000602082015250565b7f455243313135353a207472616e736665722063616c6c6572206973206e6f742060008201527f6f776e6572206e6f7220617070726f7665640000000000000000000000000000602082015250565b7f455243313135353a20696e73756666696369656e742062616c616e636520666f60008201527f72207472616e7366657200000000000000000000000000000000000000000000602082015250565b7f4f776e61626c653a2063616c6c6572206973206e6f7420746865206f776e6572600082015250565b7f5469636b657420737570706c79206d757374206265206772656174657220746860008201527f616e203000000000000000000000000000000000000000000000000000000000602082015250565b7f5472616e73616374696f6e2076616c7565206e6f7420657175616c20746f207060008201527f7269636520726571756972656400000000000000000000000000000000000000602082015250565b7f455243313135353a2073657474696e6720617070726f76616c2073746174757360008201527f20666f722073656c660000000000000000000000000000000000000000000000602082015250565b7f455243313135353a206163636f756e747320616e6420696473206c656e67746860008201527f206d69736d617463680000000000000000000000000000000000000000000000602082015250565b7f455243313135353a2069647320616e6420616d6f756e7473206c656e6774682060008201527f6d69736d61746368000000000000000000000000000000000000000000000000602082015250565b7f455243313135353a206d696e7420746f20746865207a65726f2061646472657360008201527f7300000000000000000000000000000000000000000000000000000000000000602082015250565b7f5072696365206d7573742062652067726561746572207468616e203000000000600082015250565b7f537570706c7920666f722074686973207469636b6574206973206e6f7420656e60008201527f6f75676800000000000000000000000000000000000000000000000000000000602082015250565b600060443d10156137a657613829565b6137ae612e13565b60043d036004823e80513d602482011167ffffffffffffffff821117156137d6575050613829565b808201805167ffffffffffffffff8111156137f45750505050613829565b80602083010160043d038501811115613811575050505050613829565b61382082602001850186613114565b82955050505050505b90565b6138358161302c565b811461384057600080fd5b50565b61384c8161303e565b811461385757600080fd5b50565b6138638161304a565b811461386e57600080fd5b50565b61387a81613096565b811461388557600080fd5b5056fea2646970667358221220cbb6faafc8f76a76dbac59f7d26436d8bfdf3ec61b46da3384b725faa6a5070864736f6c63430008070033",
  "immutableReferences": {},
  "source": "// SPDX-License-Identifier: MIT\npragma solidity ^0.8.7;\n\nimport \"@openzeppelin/contracts/access/Ownable.sol\";\nimport \"@openzeppelin/contracts/token/ERC1155/ERC1155.sol\";\nimport \"@openzeppelin/contracts/token/ERC1155/utils/ERC1155Holder.sol\";\nimport \"@openzeppelin/contracts/utils/Counters.sol\";\n\ncontract TicketStore is ERC1155, ERC1155Holder, Ownable  {\n\n    constructor() ERC1155(\"\") {}\n\n    using Counters for Counters.Counter; \n    Counters.Counter private _eventId;\n\n    struct Event {\n        uint id;\n        uint price;\n        uint ticketSupply;\n        string singer;\n    }\n\n    mapping(uint => Event) private _idToEvent;\n    mapping(address => uint) private _pendingWithdrawals;\n\n    event eventCreated(uint indexed id, uint price, uint ticketSupply, string singer);\n    event ticketBuyed(uint indexed id, address _buyer, uint _amount);\n\n    function createEvent(uint _price, uint _ticketSupply, string memory _singer) onlyOwner public {\n        require(_price > 0, \"Price must be greater than 0\");\n        require(_ticketSupply > 0, \"Ticket supply must be greater than 0\");\n\n        uint _id = _eventId.current();\n        _eventId.increment();\n        _mint(address(this), _id, _ticketSupply, \"\");\n        _idToEvent[_id] = Event(\n            _id,\n            _price,\n            _ticketSupply,\n            _singer\n        );\n\n        emit eventCreated(_id, _price, _ticketSupply, _singer);\n    }\n\n    function buyEvent(uint _id, uint _amount) public payable {\n        Event memory _event = _idToEvent[_id];\n        require(_event.ticketSupply > 0 && _amount <= _event.ticketSupply, \"Supply for this ticket is not enough\");\n        require(msg.value == _event.price * _amount, \"Transaction value not equal to price required\");\n\n        _safeTransferFrom(address(this), msg.sender, _event.id, _amount, \"\");\n        _event.ticketSupply -= _amount;\n        _idToEvent[_id] = _event;\n\n        emit ticketBuyed(_id, msg.sender, _amount);\n    }\n\n    function withdraw() public {\n        uint amount = _pendingWithdrawals[msg.sender];\n        _pendingWithdrawals[msg.sender] = 0;\n        payable(msg.sender).transfer(amount);\n    }\n\n    function supportsInterface(bytes4 interfaceId)\n        public\n        view\n        override(ERC1155, ERC1155Receiver)\n        returns (bool) {\n        return super.supportsInterface(interfaceId);\n    }\n\n}",
  "sourcePath": "/home/salvatore_catania/solidity/SimpleTicketStore_solidity/contracts/TicketStore.sol",
  "compiler": {
    "name": "solc",
    "version": "0.8.7+commit.e28d00a7.Emscripten.clang"
  },
  "schemaVersion": "3.4.6",
  "updatedAt": "2022-03-14T13:24:58.776Z",
  "devdoc": {
    "kind": "dev",
    "methods": {
      "balanceOf(address,uint256)": {
        "details": "See {IERC1155-balanceOf}. Requirements: - `account` cannot be the zero address."
      },
      "balanceOfBatch(address[],uint256[])": {
        "details": "See {IERC1155-balanceOfBatch}. Requirements: - `accounts` and `ids` must have the same length."
      },
      "isApprovedForAll(address,address)": {
        "details": "See {IERC1155-isApprovedForAll}."
      },
      "owner()": {
        "details": "Returns the address of the current owner."
      },
      "renounceOwnership()": {
        "details": "Leaves the contract without owner. It will not be possible to call `onlyOwner` functions anymore. Can only be called by the current owner. NOTE: Renouncing ownership will leave the contract without an owner, thereby removing any functionality that is only available to the owner."
      },
      "safeBatchTransferFrom(address,address,uint256[],uint256[],bytes)": {
        "details": "See {IERC1155-safeBatchTransferFrom}."
      },
      "safeTransferFrom(address,address,uint256,uint256,bytes)": {
        "details": "See {IERC1155-safeTransferFrom}."
      },
      "setApprovalForAll(address,bool)": {
        "details": "See {IERC1155-setApprovalForAll}."
      },
      "transferOwnership(address)": {
        "details": "Transfers ownership of the contract to a new account (`newOwner`). Can only be called by the current owner."
      },
      "uri(uint256)": {
        "details": "See {IERC1155MetadataURI-uri}. This implementation returns the same URI for *all* token types. It relies on the token type ID substitution mechanism https://eips.ethereum.org/EIPS/eip-1155#metadata[defined in the EIP]. Clients calling this function must replace the `\\{id\\}` substring with the actual token type ID."
      }
    },
    "version": 1
  },
  "userdoc": {
    "kind": "user",
    "methods": {},
    "version": 1
  }
}